S00600004844521B
S1100050CD01A0A1AA272B4FCD018020FED9
S1130082A656B73BA6AEB73BB644B7F83F45BE4605
S1130092A3F027083C45A3E027023C45B645B7FE3A
S11300A2B7FCA603B7FDB7FFB73B0EFFFBB6FFA431
S11300B2F02604A655200706F8043CF820DECD01FC
S11300C28090BE4891D646A1FF2608905C26F53C56
S11300D24626F1CD0180B646CD0180909FCD0180A8
S10500E220FEFA
S1130180AE081012101149250211114D4D13111210
S1130190124D4D4D4D13120311FD5A26E7111281D4
S11301A0AE0812124D4D4D4D4D011100491312036D
S10901B011FD5A26ED8149
S9030000FC
